{
  "_format": "hh-sol-artifact-1",
  "contractName": "DoctorAI",
  "sourceName": "contracts/Contract.sol",
  "abi": [
    {
      "inputs": [
        {
          "internalType": "address",
          "name": "_doctorAI_address",
          "type": "address"
        }
      ],
      "stateMutability": "nonpayable",
      "type": "constructor"
    },
    {
      "inputs": [],
      "name": "doctorAI_address",
      "outputs": [
        {
          "internalType": "address",
          "name": "",
          "type": "address"
        }
      ],
      "stateMutability": "view",
      "type": "function"
    },
    {
      "inputs": [],
      "name": "donate",
      "outputs": [],
      "stateMutability": "payable",
      "type": "function"
    },
    {
      "inputs": [
        {
          "internalType": "uint256",
          "name": "",
          "type": "uint256"
        }
      ],
      "name": "donations",
      "outputs": [
        {
          "internalType": "address",
          "name": "donor",
          "type": "address"
        },
        {
          "internalType": "uint256",
          "name": "amount",
          "type": "uint256"
        }
      ],
      "stateMutability": "view",
      "type": "function"
    },
    {
      "inputs": [],
      "name": "getTotalDonations",
      "outputs": [
        {
          "internalType": "uint256",
          "name": "",
          "type": "uint256"
        }
      ],
      "stateMutability": "view",
      "type": "function"
    },
    {
      "inputs": [],
      "name": "totalDonations",
      "outputs": [
        {
          "internalType": "uint256",
          "name": "",
          "type": "uint256"
        }
      ],
      "stateMutability": "view",
      "type": "function"
    },
    {
      "inputs": [
        {
          "internalType": "address",
          "name": "_newAddress",
          "type": "address"
        }
      ],
      "name": "updateDoctorAddress",
      "outputs": [],
      "stateMutability": "nonpayable",
      "type": "function"
    },
    {
      "inputs": [],
      "name": "viewDonations",
      "outputs": [
        {
          "components": [
            {
              "internalType": "address",
              "name": "donor",
              "type": "address"
            },
            {
              "internalType": "uint256",
              "name": "amount",
              "type": "uint256"
            }
          ],
          "internalType": "struct DoctorAI.Donation[]",
          "name": "",
          "type": "tuple[]"
        }
      ],
      "stateMutability": "view",
      "type": "function"
    }
  ],
  "bytecode": "0x608060405234801561001057600080fd5b5060405161053338038061053383398101604081905261002f91610054565b600080546001600160a01b0319166001600160a01b0392909216919091179055610084565b60006020828403121561006657600080fd5b81516001600160a01b038116811461007d57600080fd5b9392505050565b6104a0806100936000396000f3fe6080604052600436106100705760003560e01c8063de2ed8931161004e578063de2ed89314610110578063e81c411d14610126578063ed88c68e14610148578063f8626af81461015057600080fd5b8063777c658f14610075578063c181757b14610099578063d9f6cdfc146100d1575b600080fd5b34801561008157600080fd5b506002545b6040519081526020015b60405180910390f35b3480156100a557600080fd5b506000546100b9906001600160a01b031681565b6040516001600160a01b039091168152602001610090565b3480156100dd57600080fd5b5061010e6100ec3660046103a2565b600080546001600160a01b0319166001600160a01b0392909216919091179055565b005b34801561011c57600080fd5b5061008660025481565b34801561013257600080fd5b5061013b61018f565b60405161009091906103d2565b61010e610204565b34801561015c57600080fd5b5061017061016b36600461042a565b61036a565b604080516001600160a01b039093168352602083019190915201610090565b60606001805480602002602001604051908101604052809291908181526020016000905b828210156101fb576000848152602090819020604080518082019091526002850290910180546001600160a01b031682526001908101548284015290835290920191016101b3565b50505050905090565b604080518082019091523381523460208201818152600180548082018255600091825293517fb10e2d527612073b26eecdfd717e6a320cf44b4afac2b0732d9fcbe2b7fa0cf6600295860290810180546001600160a01b0319166001600160a01b039093169290921790915591517fb10e2d527612073b26eecdfd717e6a320cf44b4afac2b0732d9fcbe2b7fa0cf7909201919091558254919283929091906102ae908490610443565b9091555050600080546040516001600160a01b039091169083908381818185875af1925050503d8060008114610300576040519150601f19603f3d011682016040523d82523d6000602084013e610305565b606091505b50509050806103665760405162461bcd60e51b815260206004820152602360248201527f4661696c656420746f2073656e6420646f6e6174696f6e20746f20446f63746f60448201526272414960e81b606482015260840160405180910390fd5b5050565b6001818154811061037a57600080fd5b6000918252602090912060029091020180546001909101546001600160a01b03909116915082565b6000602082840312156103b457600080fd5b81356001600160a01b03811681146103cb57600080fd5b9392505050565b602080825282518282018190526000919060409081850190868401855b8281101561041d57815180516001600160a01b031685528601518685015292840192908501906001016103ef565b5091979650505050505050565b60006020828403121561043c57600080fd5b5035919050565b8082018082111561046457634e487b7160e01b600052601160045260246000fd5b9291505056fea2646970667358221220b927a07e3346b7a3e978ca695f3654aeb83cb1ea74ede79aae71fada6b83816d64736f6c63430008110033",
  "linkReferences": {},
  "deployedLinkReferences": {}
}