{
  "_format": "hh-sol-artifact-1",
  "contractName": "DoctorAI",
  "sourceName": "contracts/Contract.sol",
  "abi": [
    {
      "inputs": [
        {
          "internalType": "address payable",
          "name": "_doctorAI",
          "type": "address"
        }
      ],
      "stateMutability": "nonpayable",
      "type": "constructor"
    },
    {
      "anonymous": false,
      "inputs": [
        {
          "indexed": true,
          "internalType": "address",
          "name": "from",
          "type": "address"
        },
        {
          "indexed": false,
          "internalType": "uint256",
          "name": "amount",
          "type": "uint256"
        }
      ],
      "name": "DonationReceived",
      "type": "event"
    },
    {
      "anonymous": false,
      "inputs": [
        {
          "indexed": true,
          "internalType": "address",
          "name": "from",
          "type": "address"
        },
        {
          "indexed": false,
          "internalType": "uint256",
          "name": "amount",
          "type": "uint256"
        }
      ],
      "name": "PaymentReceived",
      "type": "event"
    },
    {
      "inputs": [],
      "name": "doctorAI",
      "outputs": [
        {
          "internalType": "address payable",
          "name": "",
          "type": "address"
        }
      ],
      "stateMutability": "view",
      "type": "function"
    },
    {
      "inputs": [],
      "name": "donate",
      "outputs": [],
      "stateMutability": "payable",
      "type": "function"
    },
    {
      "inputs": [
        {
          "internalType": "address",
          "name": "",
          "type": "address"
        }
      ],
      "name": "donations",
      "outputs": [
        {
          "internalType": "uint256",
          "name": "",
          "type": "uint256"
        }
      ],
      "stateMutability": "view",
      "type": "function"
    },
    {
      "inputs": [
        {
          "internalType": "uint256",
          "name": "",
          "type": "uint256"
        }
      ],
      "name": "donators",
      "outputs": [
        {
          "internalType": "address",
          "name": "",
          "type": "address"
        }
      ],
      "stateMutability": "view",
      "type": "function"
    },
    {
      "inputs": [],
      "name": "getDonators",
      "outputs": [
        {
          "internalType": "address[]",
          "name": "",
          "type": "address[]"
        }
      ],
      "stateMutability": "view",
      "type": "function"
    },
    {
      "inputs": [],
      "name": "pay",
      "outputs": [],
      "stateMutability": "payable",
      "type": "function"
    },
    {
      "inputs": [
        {
          "internalType": "address payable",
          "name": "_newDoctorAI",
          "type": "address"
        }
      ],
      "name": "updateDoctorAI",
      "outputs": [],
      "stateMutability": "nonpayable",
      "type": "function"
    }
  ],
  "bytecode": "0x608060405234801561001057600080fd5b506040516106c03803806106c083398101604081905261002f916100a0565b6001600160a01b03811661007b5760405162461bcd60e51b815260206004820152600f60248201526e496e76616c6964206164647265737360881b604482015260640160405180910390fd5b600080546001600160a01b0319166001600160a01b03929092169190911790556100d0565b6000602082840312156100b257600080fd5b81516001600160a01b03811681146100c957600080fd5b9392505050565b6105e1806100df6000396000f3fe6080604052600436106100705760003560e01c8063ac62f5661161004e578063ac62f566146100dc578063bf1482fa146100fc578063cc6cb19a1461011e578063ed88c68e1461015957600080fd5b80631b9265b814610075578063321f0cb51461007f57806366bfeaa2146100bc575b600080fd5b61007d610161565b005b34801561008b57600080fd5b5060005461009f906001600160a01b031681565b6040516001600160a01b0390911681526020015b60405180910390f35b3480156100c857600080fd5b5061007d6100d73660046104fa565b610220565b3480156100e857600080fd5b5061009f6100f736600461051e565b61031c565b34801561010857600080fd5b50610111610346565b6040516100b39190610537565b34801561012a57600080fd5b5061014b6101393660046104fa565b60016020526000908152604090205481565b6040519081526020016100b3565b61007d6103a8565b600034116101ad5760405162461bcd60e51b81526020600482015260146024820152734d7573742073656e642045544820746f2070617960601b60448201526064015b60405180910390fd5b600080546040516001600160a01b03909116913480156108fc02929091818181858888f193505050501580156101e7573d6000803e3d6000fd5b5060405134815233907f6ef95f06320e7a25a04a175ca677b7052bdd97131872c2192525a629f51be770906020015b60405180910390a2565b6000546001600160a01b031633146102995760405162461bcd60e51b815260206004820152603660248201527f4f6e6c79207468652063757272656e742070726f6a6563742077616c6c65742060448201527563616e2075706461746520746865206164647265737360501b60648201526084016101a4565b6001600160a01b0381166102fa5760405162461bcd60e51b815260206004820152602260248201527f496e76616c6964206e65772070726f6a6563742077616c6c6574206164647265604482015261737360f01b60648201526084016101a4565b600080546001600160a01b0319166001600160a01b0392909216919091179055565b6002818154811061032c57600080fd5b6000918252602090912001546001600160a01b0316905081565b6060600280548060200260200160405190810160405280929190818152602001828054801561039e57602002820191906000526020600020905b81546001600160a01b03168152600190910190602001808311610380575b5050505050905090565b600034116103f85760405162461bcd60e51b815260206004820152601760248201527f4d7573742073656e642045544820746f20646f6e61746500000000000000000060448201526064016101a4565b33600090815260016020526040812054900361045157600280546001810182556000919091527f405787fa12a823e0f2b7631cc41b3ba8828b3321ca811111fa75cd3aa3bb5ace0180546001600160a01b031916331790555b3360009081526001602052604081208054349290610470908490610584565b9091555050600080546040516001600160a01b03909116913480156108fc02929091818181858888f193505050501580156104af573d6000803e3d6000fd5b5060405134815233907f264f630d9efa0d07053a31163641d9fcc0adafc9d9e76f1c37c2ce3a558d2c5290602001610216565b6001600160a01b03811681146104f757600080fd5b50565b60006020828403121561050c57600080fd5b8135610517816104e2565b9392505050565b60006020828403121561053057600080fd5b5035919050565b6020808252825182820181905260009190848201906040850190845b818110156105785783516001600160a01b031683529284019291840191600101610553565b50909695505050505050565b808201808211156105a557634e487b7160e01b600052601160045260246000fd5b9291505056fea26469706673582212205df8056e41571642c78e0c3ed9c34bd89018c1a46e83b38ecf2b11dd2b61341d64736f6c63430008110033",
  "linkReferences": {},
  "deployedLinkReferences": {}
}